{
  "contractName": "dynamic_set_string",
  "abi": [
    {
      "constant": true,
      "inputs": [
        {
          "name": "",
          "type": "address"
        }
      ],
      "name": "string_data",
      "outputs": [
        {
          "name": "",
          "type": "string"
        }
      ],
      "payable": false,
      "stateMutability": "view",
      "type": "function"
    },
    {
      "inputs": [
        {
          "name": "tmpString",
          "type": "string"
        }
      ],
      "payable": false,
      "stateMutability": "nonpayable",
      "type": "constructor"
    },
    {
      "constant": false,
      "inputs": [
        {
          "name": "_data",
          "type": "string"
        }
      ],
      "name": "set_string_data",
      "outputs": [],
      "payable": false,
      "stateMutability": "nonpayable",
      "type": "function"
    }
  ],
  "bytecode": "0x608060405234801561001057600080fd5b5060405161048d38038061048d83398101806040528101908080518201929190505050806000803373ffffffffffffffffffffffffffffffffffffffff1673ffffffffffffffffffffffffffffffffffffffff168152602001908152602001600020908051906020019061008592919061008c565b5050610131565b828054600181600116156101000203166002900490600052602060002090601f016020900481019282601f106100cd57805160ff19168380011785556100fb565b828001600101855582156100fb579182015b828111156100fa5782518255916020019190600101906100df565b5b509050610108919061010c565b5090565b61012e91905b8082111561012a576000816000905550600101610112565b5090565b90565b61034d806101406000396000f30060806040526004361061004c576000357c0100000000000000000000000000000000000000000000000000000000900463ffffffff1680632a82343014610051578063a7f05b571461010d575b600080fd5b34801561005d57600080fd5b50610092600480360381019080803573ffffffffffffffffffffffffffffffffffffffff169060200190929190505050610176565b6040518080602001828103825283818151815260200191508051906020019080838360005b838110156100d25780820151818401526020810190506100b7565b50505050905090810190601f1680156100ff5780820380516001836020036101000a031916815260200191505b509250505060405180910390f35b34801561011957600080fd5b50610174600480360381019080803590602001908201803590602001908080601f0160208091040260200160405190810160405280939291908181526020018383808284378201915050505050509192919290505050610226565b005b60006020528060005260406000206000915090508054600181600116156101000203166002900480601f01602080910402602001604051908101604052809291908181526020018280546001816001161561010002031660029004801561021e5780601f106101f35761010080835404028352916020019161021e565b820191906000526020600020905b81548152906001019060200180831161020157829003601f168201915b505050505081565b806000803373ffffffffffffffffffffffffffffffffffffffff1673ffffffffffffffffffffffffffffffffffffffff168152602001908152602001600020908051906020019061027892919061027c565b5050565b828054600181600116156101000203166002900490600052602060002090601f016020900481019282601f106102bd57805160ff19168380011785556102eb565b828001600101855582156102eb579182015b828111156102ea5782518255916020019190600101906102cf565b5b5090506102f891906102fc565b5090565b61031e91905b8082111561031a576000816000905550600101610302565b5090565b905600a165627a7a72305820bac33b75611bc3c0b9e8810b47f7282c84ea3a5974dde95eeeab655103ec40a40029",
  "source": "pragma solidity ^0.4.24;\n\ncontract dynamic_set_string {\n\n    mapping (address => string) public string_data;\n\n    constructor(string tmpString) public {\n        string_data[msg.sender] = tmpString;\n    }\n\n    function set_string_data(string _data) public {\n        string_data[msg.sender] = _data;\n    }\n}",
  "sourcePath": "/mnt/c/files/truffle_tutorial/etherlimeWorkspace/contracts/dynamic_set_string.sol",
  "compiler": {
    "name": "solc",
    "version": "0.4.25+commit.59dbf8f1.Emscripten.clang"
  },
  "schemaVersion": "0.9.12",
  "updatedAt": "2018-11-07T01:27:25.752Z"
}