{
  "contractName": "permission_set_int",
  "abi": [
    {
      "constant": true,
      "inputs": [],
      "name": "owner",
      "outputs": [
        {
          "name": "",
          "type": "address"
        }
      ],
      "payable": false,
      "stateMutability": "view",
      "type": "function"
    },
    {
      "constant": true,
      "inputs": [],
      "name": "public_int",
      "outputs": [
        {
          "name": "",
          "type": "int256"
        }
      ],
      "payable": false,
      "stateMutability": "view",
      "type": "function"
    },
    {
      "inputs": [],
      "payable": false,
      "stateMutability": "nonpayable",
      "type": "constructor"
    },
    {
      "constant": true,
      "inputs": [
        {
          "name": "tmpInt",
          "type": "int256"
        }
      ],
      "name": "can_set_int_data",
      "outputs": [
        {
          "name": "",
          "type": "bool"
        }
      ],
      "payable": false,
      "stateMutability": "view",
      "type": "function"
    },
    {
      "constant": false,
      "inputs": [
        {
          "name": "tmpInt",
          "type": "int256"
        }
      ],
      "name": "set_int_data",
      "outputs": [
        {
          "name": "",
          "type": "bool"
        }
      ],
      "payable": false,
      "stateMutability": "nonpayable",
      "type": "function"
    },
    {
      "constant": false,
      "inputs": [
        {
          "name": "_new_owner",
          "type": "address"
        }
      ],
      "name": "change_owner",
      "outputs": [],
      "payable": false,
      "stateMutability": "nonpayable",
      "type": "function"
    }
  ],
  "bytecode": "0x608060405234801561001057600080fd5b50600073ffffffffffffffffffffffffffffffffffffffff16600160009054906101000a900473ffffffffffffffffffffffffffffffffffffffff1673ffffffffffffffffffffffffffffffffffffffff1614156100aa5733600160006101000a81548173ffffffffffffffffffffffffffffffffffffffff021916908373ffffffffffffffffffffffffffffffffffffffff1602179055505b6101a4600081905550610398806100c26000396000f30060806040526004361061006d576000357c0100000000000000000000000000000000000000000000000000000000900463ffffffff168063253c8bd4146100725780634bcdc8b5146100b5578063750adb86146100fa5780638da5cb5b1461013f578063b90f636d14610196575b600080fd5b34801561007e57600080fd5b506100b3600480360381019080803573ffffffffffffffffffffffffffffffffffffffff1690602001909291905050506101c1565b005b3480156100c157600080fd5b506100e06004803603810190808035906020019092919050505061025c565b604051808215151515815260200191505060405180910390f35b34801561010657600080fd5b50610125600480360381019080803590602001909291905050506102ce565b604051808215151515815260200191505060405180910390f35b34801561014b57600080fd5b50610154610340565b604051808273ffffffffffffffffffffffffffffffffffffffff1673ffffffffffffffffffffffffffffffffffffffff16815260200191505060405180910390f35b3480156101a257600080fd5b506101ab610366565b6040518082815260200191505060405180910390f35b600160009054906101000a900473ffffffffffffffffffffffffffffffffffffffff1673ffffffffffffffffffffffffffffffffffffffff163373ffffffffffffffffffffffffffffffffffffffff1614156102595780600160006101000a81548173ffffffffffffffffffffffffffffffffffffffff021916908373ffffffffffffffffffffffffffffffffffffffff1602179055505b50565b6000600160009054906101000a900473ffffffffffffffffffffffffffffffffffffffff1673ffffffffffffffffffffffffffffffffffffffff163373ffffffffffffffffffffffffffffffffffffffff1614156102c45781600081905550600190506102c9565b600090505b919050565b6000600160009054906101000a900473ffffffffffffffffffffffffffffffffffffffff1673ffffffffffffffffffffffffffffffffffffffff163373ffffffffffffffffffffffffffffffffffffffff16141561033657816000819055506001905061033b565b600090505b919050565b600160009054906101000a900473ffffffffffffffffffffffffffffffffffffffff1681565b600054815600a165627a7a7230582044959419e295389ae4738cbab587ef8f5d642fd4fa72461447edd4a088d285450029",
  "source": "pragma solidity ^0.4.24;\n\ncontract permission_set_int {\n    int256 public public_int;\n    address public owner;\n    constructor () public {\n        if(owner == address(0)){\n            owner = msg.sender;\n        }\n        public_int = 420;\n    }\n    function can_set_int_data(int256 tmpInt) public view returns(bool) {\n        //views can not change the state\n        if(msg.sender == owner){\n            public_int = tmpInt;\n            return true;\n        }\n        return false;\n    }\n    function set_int_data(int256 tmpInt) public returns(bool) {\n        if(msg.sender == owner){\n            public_int = tmpInt;\n            return true;\n        }\n        return false;\n    }\n    function change_owner(address _new_owner) public {\n        if(msg.sender == owner){\n            owner = _new_owner;\n        }\n    }    \n}",
  "sourcePath": "/mnt/c/files/truffle_tutorial/etherlimeWorkspace/contracts/permission_set_int.sol",
  "compiler": {
    "name": "solc",
    "version": "0.4.25+commit.59dbf8f1.Emscripten.clang"
  },
  "schemaVersion": "0.9.12",
  "updatedAt": "2018-11-07T01:27:25.753Z"
}