{
  "contractName": "set_int",
  "abi": [
    {
      "constant": true,
      "inputs": [],
      "name": "public_int",
      "outputs": [
        {
          "name": "",
          "type": "int256"
        }
      ],
      "payable": false,
      "stateMutability": "view",
      "type": "function"
    },
    {
      "inputs": [],
      "payable": false,
      "stateMutability": "nonpayable",
      "type": "constructor"
    },
    {
      "constant": false,
      "inputs": [
        {
          "name": "tmpNum",
          "type": "int256"
        }
      ],
      "name": "set_int_data",
      "outputs": [],
      "payable": false,
      "stateMutability": "nonpayable",
      "type": "function"
    }
  ],
  "bytecode": "0x608060405234801561001057600080fd5b5033600160006101000a81548173ffffffffffffffffffffffffffffffffffffffff021916908373ffffffffffffffffffffffffffffffffffffffff160217905550602a60008190555060dc806100686000396000f3006080604052600436106049576000357c0100000000000000000000000000000000000000000000000000000000900463ffffffff1680634bcdc8b514604e578063b90f636d146078575b600080fd5b348015605957600080fd5b5060766004803603810190808035906020019092919050505060a0565b005b348015608357600080fd5b50608a60aa565b6040518082815260200191505060405180910390f35b8060008190555050565b600054815600a165627a7a72305820173fe83c242022dd3e7124bd032f3a1a67a5e7fe05d8882a738a6cccfed118b80029",
  "source": "pragma solidity ^0.4.24;\n\ncontract set_int {\n    int256 public public_int;\n    address owner;\n\n    constructor() public {\n        owner = msg.sender;\n        public_int = 42;\n    }\n\n    function set_int_data(int256 tmpNum) public {\n        public_int = tmpNum;\n    }\n}",
  "sourcePath": "/mnt/c/files/truffle_tutorial/etherlimeWorkspace/contracts/set_int.sol",
  "compiler": {
    "name": "solc",
    "version": "0.4.25+commit.59dbf8f1.Emscripten.clang"
  },
  "schemaVersion": "0.9.12",
  "updatedAt": "2018-11-07T01:27:25.752Z"
}