{
  "contractName": "set_string",
  "abi": [
    {
      "constant": true,
      "inputs": [],
      "name": "public_string",
      "outputs": [
        {
          "name": "",
          "type": "string"
        }
      ],
      "payable": false,
      "stateMutability": "view",
      "type": "function"
    },
    {
      "inputs": [
        {
          "name": "tmpString",
          "type": "string"
        }
      ],
      "payable": false,
      "stateMutability": "nonpayable",
      "type": "constructor"
    },
    {
      "constant": false,
      "inputs": [
        {
          "name": "tmpString",
          "type": "string"
        }
      ],
      "name": "set_string_data",
      "outputs": [],
      "payable": false,
      "stateMutability": "nonpayable",
      "type": "function"
    }
  ],
  "bytecode": "0x608060405234801561001057600080fd5b506040516103d73803806103d7833981018060405281019080805182019291905050508060009080519060200190610049929190610050565b50506100f5565b828054600181600116156101000203166002900490600052602060002090601f016020900481019282601f1061009157805160ff19168380011785556100bf565b828001600101855582156100bf579182015b828111156100be5782518255916020019190600101906100a3565b5b5090506100cc91906100d0565b5090565b6100f291905b808211156100ee5760008160009055506001016100d6565b5090565b90565b6102d3806101046000396000f30060806040526004361061004c576000357c0100000000000000000000000000000000000000000000000000000000900463ffffffff1680631fe3a78314610051578063a7f05b57146100e1575b600080fd5b34801561005d57600080fd5b5061006661014a565b6040518080602001828103825283818151815260200191508051906020019080838360005b838110156100a657808201518184015260208101905061008b565b50505050905090810190601f1680156100d35780820380516001836020036101000a031916815260200191505b509250505060405180910390f35b3480156100ed57600080fd5b50610148600480360381019080803590602001908201803590602001908080601f01602080910402602001604051908101604052809392919081815260200183838082843782019150505050505091929192905050506101e8565b005b60008054600181600116156101000203166002900480601f0160208091040260200160405190810160405280929190818152602001828054600181600116156101000203166002900480156101e05780601f106101b5576101008083540402835291602001916101e0565b820191906000526020600020905b8154815290600101906020018083116101c357829003601f168201915b505050505081565b80600090805190602001906101fe929190610202565b5050565b828054600181600116156101000203166002900490600052602060002090601f016020900481019282601f1061024357805160ff1916838001178555610271565b82800160010185558215610271579182015b82811115610270578251825591602001919060010190610255565b5b50905061027e9190610282565b5090565b6102a491905b808211156102a0576000816000905550600101610288565b5090565b905600a165627a7a723058208b080814cffb65bf19aa8216a1d7db58ca86e25bdf10717344617959ed55d4820029",
  "source": "pragma solidity ^0.4.24;\n\ncontract set_string {\n    string public public_string;\n    constructor(string tmpString) public {\n        public_string = tmpString;\n    } \n    function set_string_data(string tmpString) public {\n        public_string = tmpString;\n    }\n}",
  "sourcePath": "/mnt/c/files/truffle_tutorial/etherlimeWorkspace/contracts/set_string.sol",
  "compiler": {
    "name": "solc",
    "version": "0.4.25+commit.59dbf8f1.Emscripten.clang"
  },
  "schemaVersion": "0.9.12",
  "updatedAt": "2018-11-07T01:27:25.755Z"
}