{
  "contractName": "smart_contract_wallet",
  "abi": [
    {
      "constant": true,
      "inputs": [],
      "name": "creator",
      "outputs": [
        {
          "name": "",
          "type": "address"
        }
      ],
      "payable": false,
      "stateMutability": "view",
      "type": "function"
    },
    {
      "constant": true,
      "inputs": [
        {
          "name": "",
          "type": "uint32"
        }
      ],
      "name": "transfers_out",
      "outputs": [
        {
          "name": "from",
          "type": "address"
        },
        {
          "name": "amount",
          "type": "uint256"
        }
      ],
      "payable": false,
      "stateMutability": "view",
      "type": "function"
    },
    {
      "constant": true,
      "inputs": [
        {
          "name": "",
          "type": "address"
        }
      ],
      "name": "balances",
      "outputs": [
        {
          "name": "",
          "type": "uint256"
        }
      ],
      "payable": false,
      "stateMutability": "view",
      "type": "function"
    },
    {
      "constant": true,
      "inputs": [
        {
          "name": "",
          "type": "uint32"
        }
      ],
      "name": "transfers_in",
      "outputs": [
        {
          "name": "from",
          "type": "address"
        },
        {
          "name": "amount",
          "type": "uint256"
        }
      ],
      "payable": false,
      "stateMutability": "view",
      "type": "function"
    },
    {
      "inputs": [],
      "payable": false,
      "stateMutability": "nonpayable",
      "type": "constructor"
    },
    {
      "constant": false,
      "inputs": [],
      "name": "update_balance",
      "outputs": [],
      "payable": true,
      "stateMutability": "payable",
      "type": "function"
    },
    {
      "constant": false,
      "inputs": [
        {
          "name": "_amount",
          "type": "uint256"
        },
        {
          "name": "_reciever",
          "type": "address"
        }
      ],
      "name": "withdrawl",
      "outputs": [],
      "payable": false,
      "stateMutability": "nonpayable",
      "type": "function"
    }
  ],
  "bytecode": "0x60806040526001600360006101000a81548163ffffffff021916908363ffffffff1602179055506001600360046101000a81548163ffffffff021916908363ffffffff16021790555034801561005457600080fd5b50600073ffffffffffffffffffffffffffffffffffffffff16600360089054906101000a900473ffffffffffffffffffffffffffffffffffffffff1673ffffffffffffffffffffffffffffffffffffffff1614156100ee5733600360086101000a81548173ffffffffffffffffffffffffffffffffffffffff021916908373ffffffffffffffffffffffffffffffffffffffff1602179055505b610694806100fd6000396000f300608060405260043610610078576000357c0100000000000000000000000000000000000000000000000000000000900463ffffffff16806302d05d3f1461007d5780630dca3645146100d457806327e235e31461014e57806350c741a3146101a557806378773eb81461021f578063c21331361461026c575b600080fd5b34801561008957600080fd5b50610092610276565b604051808273ffffffffffffffffffffffffffffffffffffffff1673ffffffffffffffffffffffffffffffffffffffff16815260200191505060405180910390f35b3480156100e057600080fd5b50610105600480360381019080803563ffffffff16906020019092919050505061029c565b604051808373ffffffffffffffffffffffffffffffffffffffff1673ffffffffffffffffffffffffffffffffffffffff1681526020018281526020019250505060405180910390f35b34801561015a57600080fd5b5061018f600480360381019080803573ffffffffffffffffffffffffffffffffffffffff1690602001909291905050506102e0565b6040518082815260200191505060405180910390f35b3480156101b157600080fd5b506101d6600480360381019080803563ffffffff1690602001909291905050506102f8565b604051808373ffffffffffffffffffffffffffffffffffffffff1673ffffffffffffffffffffffffffffffffffffffff1681526020018281526020019250505060405180910390f35b34801561022b57600080fd5b5061026a60048036038101908080359060200190929190803573ffffffffffffffffffffffffffffffffffffffff16906020019092919050505061033c565b005b610274610538565b005b600360089054906101000a900473ffffffffffffffffffffffffffffffffffffffff1681565b60016020528060005260406000206000915090508060000160009054906101000a900473ffffffffffffffffffffffffffffffffffffffff16908060010154905082565b60026020528060005260406000206000915090505481565b60006020528060005260406000206000915090508060000160009054906101000a900473ffffffffffffffffffffffffffffffffffffffff16908060010154905082565b600260003373ffffffffffffffffffffffffffffffffffffffff1673ffffffffffffffffffffffffffffffffffffffff1681526020019081526020016000205482111515610534573360016000600360049054906101000a900463ffffffff1663ffffffff1663ffffffff16815260200190815260200160002060000160006101000a81548173ffffffffffffffffffffffffffffffffffffffff021916908373ffffffffffffffffffffffffffffffffffffffff1602179055508160016000600360049054906101000a900463ffffffff1663ffffffff1663ffffffff168152602001908152602001600020600101819055506001600360008282829054906101000a900463ffffffff160192506101000a81548163ffffffff021916908363ffffffff16021790555081600260003373ffffffffffffffffffffffffffffffffffffffff1673ffffffffffffffffffffffffffffffffffffffff1681526020019081526020016000205403600260003373ffffffffffffffffffffffffffffffffffffffff1673ffffffffffffffffffffffffffffffffffffffff168152602001908152602001600020819055508073ffffffffffffffffffffffffffffffffffffffff166108fc839081150290604051600060405180830381858888f19350505050158015610532573d6000803e3d6000fd5b505b5050565b33600080600360009054906101000a900463ffffffff1663ffffffff1663ffffffff16815260200190815260200160002060000160006101000a81548173ffffffffffffffffffffffffffffffffffffffff021916908373ffffffffffffffffffffffffffffffffffffffff16021790555034600080600360009054906101000a900463ffffffff1663ffffffff1663ffffffff168152602001908152602001600020600101819055506001600360008282829054906101000a900463ffffffff160192506101000a81548163ffffffff021916908363ffffffff16021790555034600260003373ffffffffffffffffffffffffffffffffffffffff1673ffffffffffffffffffffffffffffffffffffffff168152602001908152602001600020600082825401925050819055505600a165627a7a723058205eba6e6e4e23ff1f7554548b3aacda48d8e4726513d582d2c16333bdea5137f50029",
  "source": "pragma solidity ^0.4.24;\n\ncontract smart_contract_wallet {\n\n    struct EthTransfers \n    {\n        address from;\n        uint256 amount;\n    }\n    mapping (uint32 => EthTransfers) public transfers_in;\n    mapping (uint32 => EthTransfers) public transfers_out;\n    mapping (address => uint256) public balances;\n    uint32 next_transfers_in_num = 1;\n    uint32 next_transfers_out_num = 1;\n    address public creator;\n    constructor() public {\n        if (creator == address(0)){\n            creator = msg.sender;\n        }\n    }\n    function update_balance() public payable{\n        transfers_in[next_transfers_in_num].from = msg.sender;\n        transfers_in[next_transfers_in_num].amount = msg.value;\n        next_transfers_in_num += 1;\n        balances[msg.sender] += msg.value;\n    }\n    function withdrawl(uint256 _amount, address _reciever) public {\n        if(_amount <= balances[msg.sender]){\n            transfers_out[next_transfers_out_num].from = msg.sender;\n            transfers_out[next_transfers_out_num].amount = _amount;\n            next_transfers_in_num += 1;\n            balances[msg.sender] = balances[msg.sender] - _amount;\n            _reciever.transfer(_amount);\n        }\n    }\n}",
  "sourcePath": "/mnt/c/files/truffle_tutorial/etherlimeWorkspace/contracts/smart_contract_wallet.sol",
  "compiler": {
    "name": "solc",
    "version": "0.4.25+commit.59dbf8f1.Emscripten.clang"
  },
  "schemaVersion": "0.9.12",
  "updatedAt": "2018-11-07T01:27:25.754Z"
}